{
  "_format": "hh-sol-artifact-1",
  "contractName": "MyEpicGame",
  "sourceName": "contracts/MyEpicGame.sol",
  "abi": [
    {
      "inputs": [
        {
          "internalType": "string[]",
          "name": "characterNames",
          "type": "string[]"
        },
        {
          "internalType": "string[]",
          "name": "characterImageURIs",
          "type": "string[]"
        },
        {
          "internalType": "uint256[]",
          "name": "characterHp",
          "type": "uint256[]"
        },
        {
          "internalType": "uint256[]",
          "name": "characterAttackDmg",
          "type": "uint256[]"
        },
        {
          "internalType": "string",
          "name": "bossName",
          "type": "string"
        },
        {
          "internalType": "string",
          "name": "bossImageURI",
          "type": "string"
        },
        {
          "internalType": "uint256",
          "name": "bossHp",
          "type": "uint256"
        },
        {
          "internalType": "uint256",
          "name": "bossAttackDamage",
          "type": "uint256"
        }
      ],
      "stateMutability": "nonpayable",
      "type": "constructor"
    },
    {
      "anonymous": false,
      "inputs": [
        {
          "indexed": true,
          "internalType": "address",
          "name": "owner",
          "type": "address"
        },
        {
          "indexed": true,
          "internalType": "address",
          "name": "approved",
          "type": "address"
        },
        {
          "indexed": true,
          "internalType": "uint256",
          "name": "tokenId",
          "type": "uint256"
        }
      ],
      "name": "Approval",
      "type": "event"
    },
    {
      "anonymous": false,
      "inputs": [
        {
          "indexed": true,
          "internalType": "address",
          "name": "owner",
          "type": "address"
        },
        {
          "indexed": true,
          "internalType": "address",
          "name": "operator",
          "type": "address"
        },
        {
          "indexed": false,
          "internalType": "bool",
          "name": "approved",
          "type": "bool"
        }
      ],
      "name": "ApprovalForAll",
      "type": "event"
    },
    {
      "anonymous": false,
      "inputs": [
        {
          "indexed": false,
          "internalType": "uint256",
          "name": "newBossHp",
          "type": "uint256"
        },
        {
          "indexed": false,
          "internalType": "uint256",
          "name": "newPlayerHp",
          "type": "uint256"
        }
      ],
      "name": "AttackComplete",
      "type": "event"
    },
    {
      "anonymous": false,
      "inputs": [
        {
          "indexed": false,
          "internalType": "address",
          "name": "sender",
          "type": "address"
        },
        {
          "indexed": false,
          "internalType": "uint256",
          "name": "tokenId",
          "type": "uint256"
        },
        {
          "indexed": false,
          "internalType": "uint256",
          "name": "characterIndex",
          "type": "uint256"
        }
      ],
      "name": "CharacterNFTMinted",
      "type": "event"
    },
    {
      "anonymous": false,
      "inputs": [
        {
          "indexed": true,
          "internalType": "address",
          "name": "from",
          "type": "address"
        },
        {
          "indexed": true,
          "internalType": "address",
          "name": "to",
          "type": "address"
        },
        {
          "indexed": true,
          "internalType": "uint256",
          "name": "tokenId",
          "type": "uint256"
        }
      ],
      "name": "Transfer",
      "type": "event"
    },
    {
      "inputs": [
        {
          "internalType": "address",
          "name": "to",
          "type": "address"
        },
        {
          "internalType": "uint256",
          "name": "tokenId",
          "type": "uint256"
        }
      ],
      "name": "approve",
      "outputs": [],
      "stateMutability": "nonpayable",
      "type": "function"
    },
    {
      "inputs": [],
      "name": "attackBoss",
      "outputs": [],
      "stateMutability": "nonpayable",
      "type": "function"
    },
    {
      "inputs": [
        {
          "internalType": "address",
          "name": "owner",
          "type": "address"
        }
      ],
      "name": "balanceOf",
      "outputs": [
        {
          "internalType": "uint256",
          "name": "",
          "type": "uint256"
        }
      ],
      "stateMutability": "view",
      "type": "function"
    },
    {
      "inputs": [],
      "name": "bigBoss",
      "outputs": [
        {
          "internalType": "string",
          "name": "name",
          "type": "string"
        },
        {
          "internalType": "string",
          "name": "imageURI",
          "type": "string"
        },
        {
          "internalType": "uint256",
          "name": "hp",
          "type": "uint256"
        },
        {
          "internalType": "uint256",
          "name": "maxHp",
          "type": "uint256"
        },
        {
          "internalType": "uint256",
          "name": "attackDamage",
          "type": "uint256"
        }
      ],
      "stateMutability": "view",
      "type": "function"
    },
    {
      "inputs": [],
      "name": "checkIfUserHasNFT",
      "outputs": [
        {
          "components": [
            {
              "internalType": "uint256",
              "name": "characterIndex",
              "type": "uint256"
            },
            {
              "internalType": "string",
              "name": "name",
              "type": "string"
            },
            {
              "internalType": "string",
              "name": "imageURI",
              "type": "string"
            },
            {
              "internalType": "uint256",
              "name": "hp",
              "type": "uint256"
            },
            {
              "internalType": "uint256",
              "name": "maxHp",
              "type": "uint256"
            },
            {
              "internalType": "uint256",
              "name": "attackDamage",
              "type": "uint256"
            }
          ],
          "internalType": "struct MyEpicGame.CharacterAttributes",
          "name": "",
          "type": "tuple"
        }
      ],
      "stateMutability": "view",
      "type": "function"
    },
    {
      "inputs": [
        {
          "internalType": "uint256",
          "name": "",
          "type": "uint256"
        }
      ],
      "name": "defaultCharacters",
      "outputs": [
        {
          "internalType": "uint256",
          "name": "characterIndex",
          "type": "uint256"
        },
        {
          "internalType": "string",
          "name": "name",
          "type": "string"
        },
        {
          "internalType": "string",
          "name": "imageURI",
          "type": "string"
        },
        {
          "internalType": "uint256",
          "name": "hp",
          "type": "uint256"
        },
        {
          "internalType": "uint256",
          "name": "maxHp",
          "type": "uint256"
        },
        {
          "internalType": "uint256",
          "name": "attackDamage",
          "type": "uint256"
        }
      ],
      "stateMutability": "view",
      "type": "function"
    },
    {
      "inputs": [],
      "name": "getAllDefaultCharacters",
      "outputs": [
        {
          "components": [
            {
              "internalType": "uint256",
              "name": "characterIndex",
              "type": "uint256"
            },
            {
              "internalType": "string",
              "name": "name",
              "type": "string"
            },
            {
              "internalType": "string",
              "name": "imageURI",
              "type": "string"
            },
            {
              "internalType": "uint256",
              "name": "hp",
              "type": "uint256"
            },
            {
              "internalType": "uint256",
              "name": "maxHp",
              "type": "uint256"
            },
            {
              "internalType": "uint256",
              "name": "attackDamage",
              "type": "uint256"
            }
          ],
          "internalType": "struct MyEpicGame.CharacterAttributes[]",
          "name": "",
          "type": "tuple[]"
        }
      ],
      "stateMutability": "view",
      "type": "function"
    },
    {
      "inputs": [
        {
          "internalType": "uint256",
          "name": "tokenId",
          "type": "uint256"
        }
      ],
      "name": "getApproved",
      "outputs": [
        {
          "internalType": "address",
          "name": "",
          "type": "address"
        }
      ],
      "stateMutability": "view",
      "type": "function"
    },
    {
      "inputs": [],
      "name": "getBigBoss",
      "outputs": [
        {
          "components": [
            {
              "internalType": "string",
              "name": "name",
              "type": "string"
            },
            {
              "internalType": "string",
              "name": "imageURI",
              "type": "string"
            },
            {
              "internalType": "uint256",
              "name": "hp",
              "type": "uint256"
            },
            {
              "internalType": "uint256",
              "name": "maxHp",
              "type": "uint256"
            },
            {
              "internalType": "uint256",
              "name": "attackDamage",
              "type": "uint256"
            }
          ],
          "internalType": "struct MyEpicGame.BigBoss",
          "name": "",
          "type": "tuple"
        }
      ],
      "stateMutability": "view",
      "type": "function"
    },
    {
      "inputs": [
        {
          "internalType": "address",
          "name": "owner",
          "type": "address"
        },
        {
          "internalType": "address",
          "name": "operator",
          "type": "address"
        }
      ],
      "name": "isApprovedForAll",
      "outputs": [
        {
          "internalType": "bool",
          "name": "",
          "type": "bool"
        }
      ],
      "stateMutability": "view",
      "type": "function"
    },
    {
      "inputs": [
        {
          "internalType": "uint256",
          "name": "_characterIndex",
          "type": "uint256"
        }
      ],
      "name": "mintCharacterNFT",
      "outputs": [],
      "stateMutability": "nonpayable",
      "type": "function"
    },
    {
      "inputs": [],
      "name": "name",
      "outputs": [
        {
          "internalType": "string",
          "name": "",
          "type": "string"
        }
      ],
      "stateMutability": "view",
      "type": "function"
    },
    {
      "inputs": [
        {
          "internalType": "uint256",
          "name": "",
          "type": "uint256"
        }
      ],
      "name": "nftHolderAttributes",
      "outputs": [
        {
          "internalType": "uint256",
          "name": "characterIndex",
          "type": "uint256"
        },
        {
          "internalType": "string",
          "name": "name",
          "type": "string"
        },
        {
          "internalType": "string",
          "name": "imageURI",
          "type": "string"
        },
        {
          "internalType": "uint256",
          "name": "hp",
          "type": "uint256"
        },
        {
          "internalType": "uint256",
          "name": "maxHp",
          "type": "uint256"
        },
        {
          "internalType": "uint256",
          "name": "attackDamage",
          "type": "uint256"
        }
      ],
      "stateMutability": "view",
      "type": "function"
    },
    {
      "inputs": [
        {
          "internalType": "address",
          "name": "",
          "type": "address"
        }
      ],
      "name": "nftHolders",
      "outputs": [
        {
          "internalType": "uint256",
          "name": "",
          "type": "uint256"
        }
      ],
      "stateMutability": "view",
      "type": "function"
    },
    {
      "inputs": [
        {
          "internalType": "uint256",
          "name": "tokenId",
          "type": "uint256"
        }
      ],
      "name": "ownerOf",
      "outputs": [
        {
          "internalType": "address",
          "name": "",
          "type": "address"
        }
      ],
      "stateMutability": "view",
      "type": "function"
    },
    {
      "inputs": [
        {
          "internalType": "address",
          "name": "from",
          "type": "address"
        },
        {
          "internalType": "address",
          "name": "to",
          "type": "address"
        },
        {
          "internalType": "uint256",
          "name": "tokenId",
          "type": "uint256"
        }
      ],
      "name": "safeTransferFrom",
      "outputs": [],
      "stateMutability": "nonpayable",
      "type": "function"
    },
    {
      "inputs": [
        {
          "internalType": "address",
          "name": "from",
          "type": "address"
        },
        {
          "internalType": "address",
          "name": "to",
          "type": "address"
        },
        {
          "internalType": "uint256",
          "name": "tokenId",
          "type": "uint256"
        },
        {
          "internalType": "bytes",
          "name": "data",
          "type": "bytes"
        }
      ],
      "name": "safeTransferFrom",
      "outputs": [],
      "stateMutability": "nonpayable",
      "type": "function"
    },
    {
      "inputs": [
        {
          "internalType": "address",
          "name": "operator",
          "type": "address"
        },
        {
          "internalType": "bool",
          "name": "approved",
          "type": "bool"
        }
      ],
      "name": "setApprovalForAll",
      "outputs": [],
      "stateMutability": "nonpayable",
      "type": "function"
    },
    {
      "inputs": [
        {
          "internalType": "bytes4",
          "name": "interfaceId",
          "type": "bytes4"
        }
      ],
      "name": "supportsInterface",
      "outputs": [
        {
          "internalType": "bool",
          "name": "",
          "type": "bool"
        }
      ],
      "stateMutability": "view",
      "type": "function"
    },
    {
      "inputs": [],
      "name": "symbol",
      "outputs": [
        {
          "internalType": "string",
          "name": "",
          "type": "string"
        }
      ],
      "stateMutability": "view",
      "type": "function"
    },
    {
      "inputs": [
        {
          "internalType": "uint256",
          "name": "_tokenId",
          "type": "uint256"
        }
      ],
      "name": "tokenURI",
      "outputs": [
        {
          "internalType": "string",
          "name": "",
          "type": "string"
        }
      ],
      "stateMutability": "view",
      "type": "function"
    },
    {
      "inputs": [
        {
          "internalType": "address",
          "name": "from",
          "type": "address"
        },
        {
          "internalType": "address",
          "name": "to",
          "type": "address"
        },
        {
          "internalType": "uint256",
          "name": "tokenId",
          "type": "uint256"
        }
      ],
      "name": "transferFrom",
      "outputs": [],
      "stateMutability": "nonpayable",
      "type": "function"
    }
  ],
  "bytecode": "0x60806040523480156200001157600080fd5b5060405162005b3938038062005b39833981810160405281019062000037919062000a8b565b6040518060400160405280600881526020017f4f6e6550696563650000000000000000000000000000000000000000000000008152506040518060400160405280600881526020017f4f4e4550494543450000000000000000000000000000000000000000000000008152508160009081620000b4919062000e4f565b508060019081620000c6919062000e4f565b5050506040518060a00160405280858152602001848152602001838152602001838152602001828152506006600082015181600001908162000109919062000e4f565b50602082015181600101908162000121919062000e4f565b50604082015181600201556060820151816003015560808201518160040155905050620002a46040518060600160405280602a815260200162005b0f602a913960066000018054620001739062000c48565b80601f0160208091040260200160405190810160405280929190818152602001828054620001a19062000c48565b8015620001f25780601f10620001c657610100808354040283529160200191620001f2565b820191906000526020600020905b815481529060010190602001808311620001d457829003601f168201915b5050505050600660020154600660010180546200020f9062000c48565b80601f01602080910402602001604051908101604052809291908181526020018280546200023d9062000c48565b80156200028e5780601f1062000262576101008083540402835291602001916200028e565b820191906000526020600020905b8154815290600101906020018083116200027057829003601f168201915b50505050506200060060201b62001bbb1760201c565b60005b8851811015620005da57600c6040518060c001604052808381526020018b8481518110620002da57620002d962000f36565b5b602002602001015181526020018a8481518110620002fd57620002fc62000f36565b5b6020026020010151815260200189848151811062000320576200031f62000f36565b5b6020026020010151815260200189848151811062000343576200034262000f36565b5b6020026020010151815260200188848151811062000366576200036562000f36565b5b60200260200101518152509080600181540180825580915050600190039060005260206000209060060201600090919091909150600082015181600001556020820151816001019081620003bb919062000e4f565b506040820151816002019081620003d3919062000e4f565b50606082015181600301556080820151816004015560a0820151816005015550506000600c82815481106200040d576200040c62000f36565b5b90600052602060002090600602016040518060c001604052908160008201548152602001600182018054620004429062000c48565b80601f0160208091040260200160405190810160405280929190818152602001828054620004709062000c48565b8015620004c15780601f106200049557610100808354040283529160200191620004c1565b820191906000526020600020905b815481529060010190602001808311620004a357829003601f168201915b50505050508152602001600282018054620004dc9062000c48565b80601f01602080910402602001604051908101604052809291908181526020018280546200050a9062000c48565b80156200055b5780601f106200052f576101008083540402835291602001916200055b565b820191906000526020600020905b8154815290600101906020018083116200053d57829003601f168201915b5050505050815260200160038201548152602001600482015481526020016005820154815250509050620005c260405180606001604052806025815260200162005aea602591398260200151836060015184604001516200060060201b62001bbb1760201c565b50600181620005d2919062000f94565b9050620002a7565b50620005f2600b620006ac60201b62001c5d1760201c565b505050505050505062001094565b620006a6848484846040516024016200061d949392919062001032565b6040516020818303038152906040527f5d1a971a000000000000000000000000000000000000000000000000000000007bffffffffffffffffffffffffffffffffffffffffffffffffffffffff19166020820180517bffffffffffffffffffffffffffffffffffffffffffffffffffffffff8381831617835250505050620006c260201b60201c565b50505050565b6001816000016000828254019250508190555050565b60008151905060006a636f6e736f6c652e6c6f679050602083016000808483855afa5050505050565b6000604051905090565b600080fd5b600080fd5b600080fd5b6000601f19601f8301169050919050565b7f4e487b7100000000000000000000000000000000000000000000000000000000600052604160045260246000fd5b6200074f8262000704565b810181811067ffffffffffffffff8211171562000771576200077062000715565b5b80604052505050565b600062000786620006eb565b905062000794828262000744565b919050565b600067ffffffffffffffff821115620007b757620007b662000715565b5b602082029050602081019050919050565b600080fd5b600080fd5b600067ffffffffffffffff821115620007f057620007ef62000715565b5b620007fb8262000704565b9050602081019050919050565b60005b83811015620008285780820151818401526020810190506200080b565b60008484015250505050565b60006200084b6200084584620007d2565b6200077a565b9050828152602081018484840111156200086a5762000869620007cd565b5b6200087784828562000808565b509392505050565b600082601f830112620008975762000896620006ff565b5b8151620008a984826020860162000834565b91505092915050565b6000620008c9620008c38462000799565b6200077a565b90508083825260208201905060208402830185811115620008ef57620008ee620007c8565b5b835b818110156200093d57805167ffffffffffffffff811115620009185762000917620006ff565b5b8086016200092789826200087f565b85526020850194505050602081019050620008f1565b5050509392505050565b600082601f8301126200095f576200095e620006ff565b5b815162000971848260208601620008b2565b91505092915050565b600067ffffffffffffffff82111562000998576200099762000715565b5b602082029050602081019050919050565b6000819050919050565b620009be81620009a9565b8114620009ca57600080fd5b50565b600081519050620009de81620009b3565b92915050565b6000620009fb620009f5846200097a565b6200077a565b9050808382526020820190506020840283018581111562000a215762000a20620007c8565b5b835b8181101562000a4e578062000a398882620009cd565b84526020840193505060208101905062000a23565b5050509392505050565b600082601f83011262000a705762000a6f620006ff565b5b815162000a82848260208601620009e4565b91505092915050565b600080600080600080600080610100898b03121562000aaf5762000aae620006f5565b5b600089015167ffffffffffffffff81111562000ad05762000acf620006fa565b5b62000ade8b828c0162000947565b985050602089015167ffffffffffffffff81111562000b025762000b01620006fa565b5b62000b108b828c0162000947565b975050604089015167ffffffffffffffff81111562000b345762000b33620006fa565b5b62000b428b828c0162000a58565b965050606089015167ffffffffffffffff81111562000b665762000b65620006fa565b5b62000b748b828c0162000a58565b955050608089015167ffffffffffffffff81111562000b985762000b97620006fa565b5b62000ba68b828c016200087f565b94505060a089015167ffffffffffffffff81111562000bca5762000bc9620006fa565b5b62000bd88b828c016200087f565b93505060c062000beb8b828c01620009cd565b92505060e062000bfe8b828c01620009cd565b9150509295985092959890939650565b600081519050919050565b7f4e487b7100000000000000000000000000000000000000000000000000000000600052602260045260246000fd5b6000600282049050600182168062000c6157607f821691505b60208210810362000c775762000c7662000c19565b5b50919050565b60008190508160005260206000209050919050565b60006020601f8301049050919050565b600082821b905092915050565b60006008830262000ce17fffffffffffffffffffffffffffffffffffffffffffffffffffffffffffffffff8262000ca2565b62000ced868362000ca2565b95508019841693508086168417925050509392505050565b6000819050919050565b600062000d3062000d2a62000d2484620009a9565b62000d05565b620009a9565b9050919050565b6000819050919050565b62000d4c8362000d0f565b62000d6462000d5b8262000d37565b84845462000caf565b825550505050565b600090565b62000d7b62000d6c565b62000d8881848462000d41565b505050565b5b8181101562000db05762000da460008262000d71565b60018101905062000d8e565b5050565b601f82111562000dff5762000dc98162000c7d565b62000dd48462000c92565b8101602085101562000de4578190505b62000dfc62000df38562000c92565b83018262000d8d565b50505b505050565b600082821c905092915050565b600062000e246000198460080262000e04565b1980831691505092915050565b600062000e3f838362000e11565b9150826002028217905092915050565b62000e5a8262000c0e565b67ffffffffffffffff81111562000e765762000e7562000715565b5b62000e82825462000c48565b62000e8f82828562000db4565b600060209050601f83116001811462000ec7576000841562000eb2578287015190505b62000ebe858262000e31565b86555062000f2e565b601f19841662000ed78662000c7d565b60005b8281101562000f015784890151825560018201915060208501945060208101905062000eda565b8683101562000f21578489015162000f1d601f89168262000e11565b8355505b6001600288020188555050505b505050505050565b7f4e487b7100000000000000000000000000000000000000000000000000000000600052603260045260246000fd5b7f4e487b7100000000000000000000000000000000000000000000000000000000600052601160045260246000fd5b600062000fa182620009a9565b915062000fae83620009a9565b925082820190508082111562000fc95762000fc862000f65565b5b92915050565b600082825260208201905092915050565b600062000fed8262000c0e565b62000ff9818562000fcf565b93506200100b81856020860162000808565b620010168162000704565b840191505092915050565b6200102c81620009a9565b82525050565b600060808201905081810360008301526200104e818762000fe0565b9050818103602083015262001064818662000fe0565b905062001075604083018562001021565b818103606083015262001089818462000fe0565b905095945050505050565b614a4680620010a46000396000f3fe608060405234801561001057600080fd5b50600436106101425760003560e01c806398da4c95116100b8578063c87b56dd1161007c578063c87b56dd14610392578063c8cf27f4146103c2578063d4f24c5b146103e0578063e985e9c5146103ea578063f7a0a8241461041a578063f8b81ef71461044f57610142565b806398da4c95146102e5578063a22cb4651461031a578063a9c3267914610336578063b88d4fde14610358578063b953084e1461037457610142565b806323b872dd1161010a57806323b872dd146101ff57806342842e0e1461021b5780636352211e1461023757806370a08231146102675780637df124a11461029757806395d89b41146102c757610142565b806301ffc9a7146101475780630665f9611461017757806306fdde0314610195578063081812fc146101b3578063095ea7b3146101e3575b600080fd5b610161600480360381019061015c9190612ea6565b61046b565b60405161016e9190612eee565b60405180910390f35b61017f61054d565b60405161018c919061302f565b60405180910390f35b61019d6106a9565b6040516101aa919061309b565b60405180910390f35b6101cd60048036038101906101c891906130e9565b61073b565b6040516101da9190613157565b60405180910390f35b6101fd60048036038101906101f8919061319e565b610781565b005b610219600480360381019061021491906131de565b610898565b005b610235600480360381019061023091906131de565b6108f8565b005b610251600480360381019061024c91906130e9565b610918565b60405161025e9190613157565b60405180910390f35b610281600480360381019061027c9190613231565b61099e565b60405161028e919061326d565b60405180910390f35b6102b160048036038101906102ac9190613231565b610a55565b6040516102be919061326d565b60405180910390f35b6102cf610a6d565b6040516102dc919061309b565b60405180910390f35b6102ff60048036038101906102fa91906130e9565b610aff565b60405161031196959493929190613288565b60405180910390f35b610334600480360381019061032f9190613323565b610c4b565b005b61033e610c61565b60405161034f959493929190613363565b60405180910390f35b610372600480360381019061036d91906134f9565b610d95565b005b61037c610df7565b60405161038991906136ce565b60405180910390f35b6103ac60048036038101906103a791906130e9565b610fa2565b6040516103b9919061309b565b60405180910390f35b6103ca6111bd565b6040516103d79190613780565b60405180910390f35b6103e8611395565b005b61040460048036038101906103ff91906137a2565b6116de565b6040516104119190612eee565b60405180910390f35b610434600480360381019061042f91906130e9565b611772565b60405161044696959493929190613288565b60405180910390f35b610469600480360381019061046491906130e9565b6118ce565b005b60007f80ac58cd000000000000000000000000000000000000000000000000000000007bffffffffffffffffffffffffffffffffffffffffffffffffffffffff1916827bffffffffffffffffffffffffffffffffffffffffffffffffffffffff1916148061053657507f5b5e139f000000000000000000000000000000000000000000000000000000007bffffffffffffffffffffffffffffffffffffffffffffffffffffffff1916827bffffffffffffffffffffffffffffffffffffffffffffffffffffffff1916145b80610546575061054582611c73565b5b9050919050565b610555612dd5565b60066040518060a001604052908160008201805461057290613811565b80601f016020809104026020016040519081016040528092919081815260200182805461059e90613811565b80156105eb5780601f106105c0576101008083540402835291602001916105eb565b820191906000526020600020905b8154815290600101906020018083116105ce57829003601f168201915b5050505050815260200160018201805461060490613811565b80601f016020809104026020016040519081016040528092919081815260200182805461063090613811565b801561067d5780601f106106525761010080835404028352916020019161067d565b820191906000526020600020905b81548152906001019060200180831161066057829003601f168201915b505050505081526020016002820154815260200160038201548152602001600482015481525050905090565b6060600080546106b890613811565b80601f01602080910402602001604051908101604052809291908181526020018280546106e490613811565b80156107315780601f1061070657610100808354040283529160200191610731565b820191906000526020600020905b81548152906001019060200180831161071457829003601f168201915b5050505050905090565b600061074682611cdd565b6004600083815260200190815260200160002060009054906101000a900473ffffffffffffffffffffffffffffffffffffffff169050919050565b600061078c82610918565b90508073ffffffffffffffffffffffffffffffffffffffff168373ffffffffffffffffffffffffffffffffffffffff16036107fc576040517f08c379a00000000000000000000000000000000000000000000000000000000081526004016107f3906138b4565b60405180910390fd5b8073ffffffffffffffffffffffffffffffffffffffff1661081b611d28565b73ffffffffffffffffffffffffffffffffffffffff16148061084a575061084981610844611d28565b6116de565b5b610889576040517f08c379a000000000000000000000000000000000000000000000000000000000815260040161088090613946565b60405180910390fd5b6108938383611d30565b505050565b6108a96108a3611d28565b82611de9565b6108e8576040517f08c379a00000000000000000000000000000000000000000000000000000000081526004016108df906139d8565b60405180910390fd5b6108f3838383611e7e565b505050565b61091383838360405180602001604052806000815250610d95565b505050565b60008061092483612177565b9050600073ffffffffffffffffffffffffffffffffffffffff168173ffffffffffffffffffffffffffffffffffffffff1603610995576040517f08c379a000000000000000000000000000000000000000000000000000000000815260040161098c90613a44565b60405180910390fd5b80915050919050565b60008073ffffffffffffffffffffffffffffffffffffffff168273ffffffffffffffffffffffffffffffffffffffff1603610a0e576040517f08c379a0000000000000000000000000000000000000000000000000000000008152600401610a0590613ad6565b60405180910390fd5b600360008373ffffffffffffffffffffffffffffffffffffffff1673ffffffffffffffffffffffffffffffffffffffff168152602001908152602001600020549050919050565b600e6020528060005260406000206000915090505481565b606060018054610a7c90613811565b80601f0160208091040260200160405190810160405280929190818152602001828054610aa890613811565b8015610af55780601f10610aca57610100808354040283529160200191610af5565b820191906000526020600020905b815481529060010190602001808311610ad857829003601f168201915b5050505050905090565b600d602052806000526040600020600091509050806000015490806001018054610b2890613811565b80601f0160208091040260200160405190810160405280929190818152602001828054610b5490613811565b8015610ba15780601f10610b7657610100808354040283529160200191610ba1565b820191906000526020600020905b815481529060010190602001808311610b8457829003601f168201915b505050505090806002018054610bb690613811565b80601f0160208091040260200160405190810160405280929190818152602001828054610be290613811565b8015610c2f5780601f10610c0457610100808354040283529160200191610c2f565b820191906000526020600020905b815481529060010190602001808311610c1257829003601f168201915b5050505050908060030154908060040154908060050154905086565b610c5d610c56611d28565b83836121b4565b5050565b6006806000018054610c7290613811565b80601f0160208091040260200160405190810160405280929190818152602001828054610c9e90613811565b8015610ceb5780601f10610cc057610100808354040283529160200191610ceb565b820191906000526020600020905b815481529060010190602001808311610cce57829003601f168201915b505050505090806001018054610d0090613811565b80601f0160208091040260200160405190810160405280929190818152602001828054610d2c90613811565b8015610d795780601f10610d4e57610100808354040283529160200191610d79565b820191906000526020600020905b815481529060010190602001808311610d5c57829003601f168201915b5050505050908060020154908060030154908060040154905085565b610da6610da0611d28565b83611de9565b610de5576040517f08c379a0000000000000000000000000000000000000000000000000000000008152600401610ddc906139d8565b60405180910390fd5b610df184848484612320565b50505050565b6060600c805480602002602001604051908101604052809291908181526020016000905b82821015610f9957838290600052602060002090600602016040518060c001604052908160008201548152602001600182018054610e5890613811565b80601f0160208091040260200160405190810160405280929190818152602001828054610e8490613811565b8015610ed15780601f10610ea657610100808354040283529160200191610ed1565b820191906000526020600020905b815481529060010190602001808311610eb457829003601f168201915b50505050508152602001600282018054610eea90613811565b80601f0160208091040260200160405190810160405280929190818152602001828054610f1690613811565b8015610f635780601f10610f3857610100808354040283529160200191610f63565b820191906000526020600020905b815481529060010190602001808311610f4657829003601f168201915b50505050508152602001600382015481526020016004820154815260200160058201548152505081526020019060010190610e1b565b50505050905090565b60606000600d60008481526020019081526020016000206040518060c001604052908160008201548152602001600182018054610fde90613811565b80601f016020809104026020016040519081016040528092919081815260200182805461100a90613811565b80156110575780601f1061102c57610100808354040283529160200191611057565b820191906000526020600020905b81548152906001019060200180831161103a57829003601f168201915b5050505050815260200160028201805461107090613811565b80601f016020809104026020016040519081016040528092919081815260200182805461109c90613811565b80156110e95780601f106110be576101008083540402835291602001916110e9565b820191906000526020600020905b8154815290600101906020018083116110cc57829003601f168201915b50505050508152602001600382015481526020016004820154815260200160058201548152505090506000611121826060015161237c565b90506000611132836080015161237c565b905060006111438460a0015161237c565b9050600061118985602001516111588961237c565b876040015187878760405160200161117596959493929190613e04565b60405160208183030381529060405261244a565b905060008160405160200161119e9190613ef5565b6040516020818303038152906040529050809650505050505050919050565b6111c5612e04565b6000600e60003373ffffffffffffffffffffffffffffffffffffffff1673ffffffffffffffffffffffffffffffffffffffff168152602001908152602001600020549050600081111561138457600d60008281526020019081526020016000206040518060c00160405290816000820154815260200160018201805461124a90613811565b80601f016020809104026020016040519081016040528092919081815260200182805461127690613811565b80156112c35780601f10611298576101008083540402835291602001916112c3565b820191906000526020600020905b8154815290600101906020018083116112a657829003601f168201915b505050505081526020016002820180546112dc90613811565b80601f016020809104026020016040519081016040528092919081815260200182805461130890613811565b80156113555780601f1061132a57610100808354040283529160200191611355565b820191906000526020600020905b81548152906001019060200180831161133857829003601f168201915b505050505081526020016003820154815260200160048201548152602001600582015481525050915050611392565b61138c612e04565b80925050505b90565b6000600e60003373ffffffffffffffffffffffffffffffffffffffff1673ffffffffffffffffffffffffffffffffffffffff1681526020019081526020016000205490506000600d600083815260200190815260200160002090506114a86040518060600160405280603c81526020016149d5603c913982600101805461141b90613811565b80601f016020809104026020016040519081016040528092919081815260200182805461144790613811565b80156114945780601f1061146957610100808354040283529160200191611494565b820191906000526020600020905b81548152906001019060200180831161147757829003601f168201915b5050505050836003015484600501546125e1565b6115806040518060400160405280601b81526020017f426f73732025732068617320257320485020616e642025732041440000000000815250600660000180546114f190613811565b80601f016020809104026020016040519081016040528092919081815260200182805461151d90613811565b801561156a5780601f1061153f5761010080835404028352916020019161156a565b820191906000526020600020905b81548152906001019060200180831161154d57829003601f168201915b50505050506006600201546006600401546125e1565b60008160030154116115c7576040517f08c379a00000000000000000000000000000000000000000000000000000000081526004016115be90613f89565b60405180910390fd5b60006006600201541161160f576040517f08c379a00000000000000000000000000000000000000000000000000000000081526004016116069061401b565b60405180910390fd5b8060050154600660020154101561163057600060066002018190555061164f565b8060050154600660020154611645919061406a565b6006600201819055505b6006600401548160030154101561166f576000816003018190555061168d565b6006600401548160030154611684919061406a565b81600301819055505b6116b460405180606001604052806025815260200161491a60259139600660020154612683565b6116da60405180606001604052806028815260200161497f602891398260030154612683565b5050565b6000600560008473ffffffffffffffffffffffffffffffffffffffff1673ffffffffffffffffffffffffffffffffffffffff16815260200190815260200160002060008373ffffffffffffffffffffffffffffffffffffffff1673ffffffffffffffffffffffffffffffffffffffff16815260200190815260200160002060009054906101000a900460ff16905092915050565b600c818154811061178257600080fd5b90600052602060002090600602016000915090508060000154908060010180546117ab90613811565b80601f01602080910402602001604051908101604052809291908181526020018280546117d790613811565b80156118245780601f106117f957610100808354040283529160200191611824565b820191906000526020600020905b81548152906001019060200180831161180757829003601f168201915b50505050509080600201805461183990613811565b80601f016020809104026020016040519081016040528092919081815260200182805461186590613811565b80156118b25780601f10611887576101008083540402835291602001916118b2565b820191906000526020600020905b81548152906001019060200180831161189557829003601f168201915b5050505050908060030154908060040154908060050154905086565b60006118da600b61271f565b90506118e6338261272d565b6040518060c00160405280838152602001600c848154811061190b5761190a61409e565b5b9060005260206000209060060201600101805461192790613811565b80601f016020809104026020016040519081016040528092919081815260200182805461195390613811565b80156119a05780601f10611975576101008083540402835291602001916119a0565b820191906000526020600020905b81548152906001019060200180831161198357829003601f168201915b50505050508152602001600c84815481106119be576119bd61409e565b5b906000526020600020906006020160020180546119da90613811565b80601f0160208091040260200160405190810160405280929190818152602001828054611a0690613811565b8015611a535780601f10611a2857610100808354040283529160200191611a53565b820191906000526020600020905b815481529060010190602001808311611a3657829003601f168201915b50505050508152602001600c8481548110611a7157611a7061409e565b5b9060005260206000209060060201600301548152602001600c8481548110611a9c57611a9b61409e565b5b9060005260206000209060060201600401548152602001600c8481548110611ac757611ac661409e565b5b906000526020600020906006020160050154815250600d6000838152602001908152602001600020600082015181600001556020820151816001019081611b0e9190614279565b506040820151816002019081611b249190614279565b50606082015181600301556080820151816004015560a08201518160050155905050611b696040518060600160405280602e81526020016149a7602e9139828461274b565b80600e60003373ffffffffffffffffffffffffffffffffffffffff1673ffffffffffffffffffffffffffffffffffffffff16815260200190815260200160002081905550611bb7600b611c5d565b5050565b611c5784848484604051602401611bd5949392919061434b565b6040516020818303038152906040527f5d1a971a000000000000000000000000000000000000000000000000000000007bffffffffffffffffffffffffffffffffffffffffffffffffffffffff19166020820180517bffffffffffffffffffffffffffffffffffffffffffffffffffffffff83818316178352505050506127ea565b50505050565b6001816000016000828254019250508190555050565b60007f01ffc9a7000000000000000000000000000000000000000000000000000000007bffffffffffffffffffffffffffffffffffffffffffffffffffffffff1916827bffffffffffffffffffffffffffffffffffffffffffffffffffffffff1916149050919050565b611ce681612813565b611d25576040517f08c379a0000000000000000000000000000000000000000000000000000000008152600401611d1c90613a44565b60405180910390fd5b50565b600033905090565b816004600083815260200190815260200160002060006101000a81548173ffffffffffffffffffffffffffffffffffffffff021916908373ffffffffffffffffffffffffffffffffffffffff160217905550808273ffffffffffffffffffffffffffffffffffffffff16611da383610918565b73ffffffffffffffffffffffffffffffffffffffff167f8c5be1e5ebec7d5bd14f71427d1e84f3dd0314c0f7b2291e5b200ac8c7c3b92560405160405180910390a45050565b600080611df583610918565b90508073ffffffffffffffffffffffffffffffffffffffff168473ffffffffffffffffffffffffffffffffffffffff161480611e375750611e3681856116de565b5b80611e7557508373ffffffffffffffffffffffffffffffffffffffff16611e5d8461073b565b73ffffffffffffffffffffffffffffffffffffffff16145b91505092915050565b8273ffffffffffffffffffffffffffffffffffffffff16611e9e82610918565b73ffffffffffffffffffffffffffffffffffffffff1614611ef4576040517f08c379a0000000000000000000000000000000000000000000000000000000008152600401611eeb90614417565b60405180910390fd5b600073ffffffffffffffffffffffffffffffffffffffff168273ffffffffffffffffffffffffffffffffffffffff1603611f63576040517f08c379a0000000000000000000000000000000000000000000000000000000008152600401611f5a906144a9565b60405180910390fd5b611f708383836001612854565b8273ffffffffffffffffffffffffffffffffffffffff16611f9082610918565b73ffffffffffffffffffffffffffffffffffffffff1614611fe6576040517f08c379a0000000000000000000000000000000000000000000000000000000008152600401611fdd90614417565b60405180910390fd5b6004600082815260200190815260200160002060006101000a81549073ffffffffffffffffffffffffffffffffffffffff02191690556001600360008573ffffffffffffffffffffffffffffffffffffffff1673ffffffffffffffffffffffffffffffffffffffff168152602001908152602001600020600082825403925050819055506001600360008473ffffffffffffffffffffffffffffffffffffffff1673ffffffffffffffffffffffffffffffffffffffff16815260200190815260200160002060008282540192505081905550816002600083815260200190815260200160002060006101000a81548173ffffffffffffffffffffffffffffffffffffffff021916908373ffffffffffffffffffffffffffffffffffffffff160217905550808273ffffffffffffffffffffffffffffffffffffffff168473ffffffffffffffffffffffffffffffffffffffff167fddf252ad1be2c89b69c2b068fc378daa952ba7f163c4a11628f55a4df523b3ef60405160405180910390a4612172838383600161285a565b505050565b60006002600083815260200190815260200160002060009054906101000a900473ffffffffffffffffffffffffffffffffffffffff169050919050565b8173ffffffffffffffffffffffffffffffffffffffff168373ffffffffffffffffffffffffffffffffffffffff1603612222576040517f08c379a000000000000000000000000000000000000000000000000000000000815260040161221990614515565b60405180910390fd5b80600560008573ffffffffffffffffffffffffffffffffffffffff1673ffffffffffffffffffffffffffffffffffffffff16815260200190815260200160002060008473ffffffffffffffffffffffffffffffffffffffff1673ffffffffffffffffffffffffffffffffffffffff16815260200190815260200160002060006101000a81548160ff0219169083151502179055508173ffffffffffffffffffffffffffffffffffffffff168373ffffffffffffffffffffffffffffffffffffffff167f17307eab39ab6107e8899845ad3d59bd9653f200f220920489ca2b5937696c31836040516123139190612eee565b60405180910390a3505050565b61232b848484611e7e565b61233784848484612860565b612376576040517f08c379a000000000000000000000000000000000000000000000000000000000815260040161236d906145a7565b60405180910390fd5b50505050565b60606000600161238b846129e7565b01905060008167ffffffffffffffff8111156123aa576123a96133ce565b5b6040519080825280601f01601f1916602001820160405280156123dc5781602001600182028036833780820191505090505b509050600082602001820190505b60011561243f578080600190039150507f3031323334353637383961626364656600000000000000000000000000000000600a86061a8153600a8581612433576124326145c7565b5b049450600085036123ea575b819350505050919050565b60606000825190506000810361247257604051806020016040528060008152509150506125dc565b6000600360028361248391906145f6565b61248d919061462a565b6004612499919061465b565b905060006020826124aa91906145f6565b67ffffffffffffffff8111156124c3576124c26133ce565b5b6040519080825280601f01601f1916602001820160405280156124f55781602001600182028036833780820191505090505b509050600060405180606001604052806040815260200161493f604091399050600181016020830160005b868110156125995760038101905062ffffff818a015116603f8160121c168401518060081b905060ff603f83600c1c1686015116810190508060081b905060ff603f8360061c1686015116810190508060081b905060ff603f831686015116810190508060e01b90508084526004840193505050612520565b5060038606600181146125b357600281146125c3576125ce565b613d3d60f01b60028303526125ce565b603d60f81b60018303525b508484525050819450505050505b919050565b61267d848484846040516024016125fb949392919061469d565b6040516020818303038152906040527ff45d7d2c000000000000000000000000000000000000000000000000000000007bffffffffffffffffffffffffffffffffffffffffffffffffffffffff19166020820180517bffffffffffffffffffffffffffffffffffffffffffffffffffffffff83818316178352505050506127ea565b50505050565b61271b82826040516024016126999291906146f0565b6040516020818303038152906040527fb60e72cc000000000000000000000000000000000000000000000000000000007bffffffffffffffffffffffffffffffffffffffffffffffffffffffff19166020820180517bffffffffffffffffffffffffffffffffffffffffffffffffffffffff83818316178352505050506127ea565b5050565b600081600001549050919050565b612747828260405180602001604052806000815250612b3a565b5050565b6127e583838360405160240161276393929190614720565b6040516020818303038152906040527fca47c4eb000000000000000000000000000000000000000000000000000000007bffffffffffffffffffffffffffffffffffffffffffffffffffffffff19166020820180517bffffffffffffffffffffffffffffffffffffffffffffffffffffffff83818316178352505050506127ea565b505050565b60008151905060006a636f6e736f6c652e6c6f679050602083016000808483855afa5050505050565b60008073ffffffffffffffffffffffffffffffffffffffff1661283583612177565b73ffffffffffffffffffffffffffffffffffffffff1614159050919050565b50505050565b50505050565b60006128818473ffffffffffffffffffffffffffffffffffffffff16612b95565b156129da578373ffffffffffffffffffffffffffffffffffffffff1663150b7a026128aa611d28565b8786866040518563ffffffff1660e01b81526004016128cc94939291906147b3565b6020604051808303816000875af192505050801561290857506040513d601f19601f820116820180604052508101906129059190614814565b60015b61298a573d8060008114612938576040519150601f19603f3d011682016040523d82523d6000602084013e61293d565b606091505b506000815103612982576040517f08c379a0000000000000000000000000000000000000000000000000000000008152600401612979906145a7565b60405180910390fd5b805181602001fd5b63150b7a0260e01b7bffffffffffffffffffffffffffffffffffffffffffffffffffffffff1916817bffffffffffffffffffffffffffffffffffffffffffffffffffffffff1916149150506129df565b600190505b949350505050565b600080600090507a184f03e93ff9f4daa797ed6e38ed64bf6a1f0100000000000000008310612a45577a184f03e93ff9f4daa797ed6e38ed64bf6a1f0100000000000000008381612a3b57612a3a6145c7565b5b0492506040810190505b6d04ee2d6d415b85acef81000000008310612a82576d04ee2d6d415b85acef81000000008381612a7857612a776145c7565b5b0492506020810190505b662386f26fc100008310612ab157662386f26fc100008381612aa757612aa66145c7565b5b0492506010810190505b6305f5e1008310612ada576305f5e1008381612ad057612acf6145c7565b5b0492506008810190505b6127108310612aff576127108381612af557612af46145c7565b5b0492506004810190505b60648310612b225760648381612b1857612b176145c7565b5b0492506002810190505b600a8310612b31576001810190505b80915050919050565b612b448383612bb8565b612b516000848484612860565b612b90576040517f08c379a0000000000000000000000000000000000000000000000000000000008152600401612b87906145a7565b60405180910390fd5b505050565b6000808273ffffffffffffffffffffffffffffffffffffffff163b119050919050565b600073ffffffffffffffffffffffffffffffffffffffff168273ffffffffffffffffffffffffffffffffffffffff1603612c27576040517f08c379a0000000000000000000000000000000000000000000000000000000008152600401612c1e9061488d565b60405180910390fd5b612c3081612813565b15612c70576040517f08c379a0000000000000000000000000000000000000000000000000000000008152600401612c67906148f9565b60405180910390fd5b612c7e600083836001612854565b612c8781612813565b15612cc7576040517f08c379a0000000000000000000000000000000000000000000000000000000008152600401612cbe906148f9565b60405180910390fd5b6001600360008473ffffffffffffffffffffffffffffffffffffffff1673ffffffffffffffffffffffffffffffffffffffff16815260200190815260200160002060008282540192505081905550816002600083815260200190815260200160002060006101000a81548173ffffffffffffffffffffffffffffffffffffffff021916908373ffffffffffffffffffffffffffffffffffffffff160217905550808273ffffffffffffffffffffffffffffffffffffffff16600073ffffffffffffffffffffffffffffffffffffffff167fddf252ad1be2c89b69c2b068fc378daa952ba7f163c4a11628f55a4df523b3ef60405160405180910390a4612dd160008383600161285a565b5050565b6040518060a0016040528060608152602001606081526020016000815260200160008152602001600081525090565b6040518060c001604052806000815260200160608152602001606081526020016000815260200160008152602001600081525090565b6000604051905090565b600080fd5b600080fd5b60007fffffffff0000000000000000000000000000000000000000000000000000000082169050919050565b612e8381612e4e565b8114612e8e57600080fd5b50565b600081359050612ea081612e7a565b92915050565b600060208284031215612ebc57612ebb612e44565b5b6000612eca84828501612e91565b91505092915050565b60008115159050919050565b612ee881612ed3565b82525050565b6000602082019050612f036000830184612edf565b92915050565b600081519050919050565b600082825260208201905092915050565b60005b83811015612f43578082015181840152602081019050612f28565b60008484015250505050565b6000601f19601f8301169050919050565b6000612f6b82612f09565b612f758185612f14565b9350612f85818560208601612f25565b612f8e81612f4f565b840191505092915050565b6000819050919050565b612fac81612f99565b82525050565b600060a0830160008301518482036000860152612fcf8282612f60565b91505060208301518482036020860152612fe98282612f60565b9150506040830151612ffe6040860182612fa3565b5060608301516130116060860182612fa3565b5060808301516130246080860182612fa3565b508091505092915050565b600060208201905081810360008301526130498184612fb2565b905092915050565b600082825260208201905092915050565b600061306d82612f09565b6130778185613051565b9350613087818560208601612f25565b61309081612f4f565b840191505092915050565b600060208201905081810360008301526130b58184613062565b905092915050565b6130c681612f99565b81146130d157600080fd5b50565b6000813590506130e3816130bd565b92915050565b6000602082840312156130ff576130fe612e44565b5b600061310d848285016130d4565b91505092915050565b600073ffffffffffffffffffffffffffffffffffffffff82169050919050565b600061314182613116565b9050919050565b61315181613136565b82525050565b600060208201905061316c6000830184613148565b92915050565b61317b81613136565b811461318657600080fd5b50565b60008135905061319881613172565b92915050565b600080604083850312156131b5576131b4612e44565b5b60006131c385828601613189565b92505060206131d4858286016130d4565b9150509250929050565b6000806000606084860312156131f7576131f6612e44565b5b600061320586828701613189565b935050602061321686828701613189565b9250506040613227868287016130d4565b9150509250925092565b60006020828403121561324757613246612e44565b5b600061325584828501613189565b91505092915050565b61326781612f99565b82525050565b6000602082019050613282600083018461325e565b92915050565b600060c08201905061329d600083018961325e565b81810360208301526132af8188613062565b905081810360408301526132c38187613062565b90506132d2606083018661325e565b6132df608083018561325e565b6132ec60a083018461325e565b979650505050505050565b61330081612ed3565b811461330b57600080fd5b50565b60008135905061331d816132f7565b92915050565b6000806040838503121561333a57613339612e44565b5b600061334885828601613189565b92505060206133598582860161330e565b9150509250929050565b600060a082019050818103600083015261337d8188613062565b905081810360208301526133918187613062565b90506133a0604083018661325e565b6133ad606083018561325e565b6133ba608083018461325e565b9695505050505050565b600080fd5b600080fd5b7f4e487b7100000000000000000000000000000000000000000000000000000000600052604160045260246000fd5b61340682612f4f565b810181811067ffffffffffffffff82111715613425576134246133ce565b5b80604052505050565b6000613438612e3a565b905061344482826133fd565b919050565b600067ffffffffffffffff821115613464576134636133ce565b5b61346d82612f4f565b9050602081019050919050565b82818337600083830152505050565b600061349c61349784613449565b61342e565b9050828152602081018484840111156134b8576134b76133c9565b5b6134c384828561347a565b509392505050565b600082601f8301126134e0576134df6133c4565b5b81356134f0848260208601613489565b91505092915050565b6000806000806080858703121561351357613512612e44565b5b600061352187828801613189565b945050602061353287828801613189565b9350506040613543878288016130d4565b925050606085013567ffffffffffffffff81111561356457613563612e49565b5b613570878288016134cb565b91505092959194509250565b600081519050919050565b600082825260208201905092915050565b6000819050602082019050919050565b600060c0830160008301516135c06000860182612fa3565b50602083015184820360208601526135d88282612f60565b915050604083015184820360408601526135f28282612f60565b91505060608301516136076060860182612fa3565b50608083015161361a6080860182612fa3565b5060a083015161362d60a0860182612fa3565b508091505092915050565b600061364483836135a8565b905092915050565b6000602082019050919050565b60006136648261357c565b61366e8185613587565b93508360208202850161368085613598565b8060005b858110156136bc578484038952815161369d8582613638565b94506136a88361364c565b925060208a01995050600181019050613684565b50829750879550505050505092915050565b600060208201905081810360008301526136e88184613659565b905092915050565b600060c0830160008301516137086000860182612fa3565b50602083015184820360208601526137208282612f60565b9150506040830151848203604086015261373a8282612f60565b915050606083015161374f6060860182612fa3565b5060808301516137626080860182612fa3565b5060a083015161377560a0860182612fa3565b508091505092915050565b6000602082019050818103600083015261379a81846136f0565b905092915050565b600080604083850312156137b9576137b8612e44565b5b60006137c785828601613189565b92505060206137d885828601613189565b9150509250929050565b7f4e487b7100000000000000000000000000000000000000000000000000000000600052602260045260246000fd5b6000600282049050600182168061382957607f821691505b60208210810361383c5761383b6137e2565b5b50919050565b7f4552433732313a20617070726f76616c20746f2063757272656e74206f776e6560008201527f7200000000000000000000000000000000000000000000000000000000000000602082015250565b600061389e602183613051565b91506138a982613842565b604082019050919050565b600060208201905081810360008301526138cd81613891565b9050919050565b7f4552433732313a20617070726f76652063616c6c6572206973206e6f7420746f60008201527f6b656e206f776e6572206f7220617070726f76656420666f7220616c6c000000602082015250565b6000613930603d83613051565b915061393b826138d4565b604082019050919050565b6000602082019050818103600083015261395f81613923565b9050919050565b7f4552433732313a2063616c6c6572206973206e6f7420746f6b656e206f776e6560008201527f72206f7220617070726f76656400000000000000000000000000000000000000602082015250565b60006139c2602d83613051565b91506139cd82613966565b604082019050919050565b600060208201905081810360008301526139f1816139b5565b9050919050565b7f4552433732313a20696e76616c696420746f6b656e2049440000000000000000600082015250565b6000613a2e601883613051565b9150613a39826139f8565b602082019050919050565b60006020820190508181036000830152613a5d81613a21565b9050919050565b7f4552433732313a2061646472657373207a65726f206973206e6f74206120766160008201527f6c6964206f776e65720000000000000000000000000000000000000000000000602082015250565b6000613ac0602983613051565b9150613acb82613a64565b604082019050919050565b60006020820190508181036000830152613aef81613ab3565b9050919050565b600081905092915050565b7f7b226e616d65223a202200000000000000000000000000000000000000000000600082015250565b6000613b37600a83613af6565b9150613b4282613b01565b600a82019050919050565b6000613b5882612f09565b613b628185613af6565b9350613b72818560208601612f25565b80840191505092915050565b7f202d2d204e465420233a20000000000000000000000000000000000000000000600082015250565b6000613bb4600b83613af6565b9150613bbf82613b7e565b600b82019050919050565b7f222c20226465736372697074696f6e223a20225468697320697320616e204e4660008201527f542074686174206c6574732070656f706c6520706c617920696e20746865206760208201527f616d65204d657461766572736520536c6179657221222c2022696d616765223a60408201527f2022000000000000000000000000000000000000000000000000000000000000606082015250565b6000613c72606283613af6565b9150613c7d82613bca565b606282019050919050565b7f222c202261747472696275746573223a205b207b202274726169745f7479706560008201527f223a20224865616c746820506f696e7473222c202276616c7565223a20000000602082015250565b6000613ce4603d83613af6565b9150613cef82613c88565b603d82019050919050565b7f2c20226d61785f76616c7565223a000000000000000000000000000000000000600082015250565b6000613d30600e83613af6565b9150613d3b82613cfa565b600e82019050919050565b7f7d2c207b202274726169745f74797065223a202241747461636b2044616d616760008201527f65222c202276616c7565223a2000000000000000000000000000000000000000602082015250565b6000613da2602d83613af6565b9150613dad82613d46565b602d82019050919050565b7f7d205d7d00000000000000000000000000000000000000000000000000000000600082015250565b6000613dee600483613af6565b9150613df982613db8565b600482019050919050565b6000613e0f82613b2a565b9150613e1b8289613b4d565b9150613e2682613ba7565b9150613e328288613b4d565b9150613e3d82613c65565b9150613e498287613b4d565b9150613e5482613cd7565b9150613e608286613b4d565b9150613e6b82613d23565b9150613e778285613b4d565b9150613e8282613d95565b9150613e8e8284613b4d565b9150613e9982613de1565b9150819050979650505050505050565b7f646174613a6170706c69636174696f6e2f6a736f6e3b6261736536342c000000600082015250565b6000613edf601d83613af6565b9150613eea82613ea9565b601d82019050919050565b6000613f0082613ed2565b9150613f0c8284613b4d565b915081905092915050565b7f4572726f723a20636861726163746572206d757374206861766520485020746f60008201527f2061747461636b20626f73732e00000000000000000000000000000000000000602082015250565b6000613f73602d83613051565b9150613f7e82613f17565b604082019050919050565b60006020820190508181036000830152613fa281613f66565b9050919050565b7f4572726f723a20626f7373206d757374206861766520485020746f206174746160008201527f636b20636861726163746572732e000000000000000000000000000000000000602082015250565b6000614005602e83613051565b915061401082613fa9565b604082019050919050565b6000602082019050818103600083015261403481613ff8565b9050919050565b7f4e487b7100000000000000000000000000000000000000000000000000000000600052601160045260246000fd5b600061407582612f99565b915061408083612f99565b92508282039050818111156140985761409761403b565b5b92915050565b7f4e487b7100000000000000000000000000000000000000000000000000000000600052603260045260246000fd5b60008190508160005260206000209050919050565b60006020601f8301049050919050565b600082821b905092915050565b60006008830261412f7fffffffffffffffffffffffffffffffffffffffffffffffffffffffffffffffff826140f2565b61413986836140f2565b95508019841693508086168417925050509392505050565b6000819050919050565b600061417661417161416c84612f99565b614151565b612f99565b9050919050565b6000819050919050565b6141908361415b565b6141a461419c8261417d565b8484546140ff565b825550505050565b600090565b6141b96141ac565b6141c4818484614187565b505050565b5b818110156141e8576141dd6000826141b1565b6001810190506141ca565b5050565b601f82111561422d576141fe816140cd565b614207846140e2565b81016020851015614216578190505b61422a614222856140e2565b8301826141c9565b50505b505050565b600082821c905092915050565b600061425060001984600802614232565b1980831691505092915050565b6000614269838361423f565b9150826002028217905092915050565b61428282612f09565b67ffffffffffffffff81111561429b5761429a6133ce565b5b6142a58254613811565b6142b08282856141ec565b600060209050601f8311600181146142e357600084156142d1578287015190505b6142db858261425d565b865550614343565b601f1984166142f1866140cd565b60005b82811015614319578489015182556001820191506020850194506020810190506142f4565b868310156143365784890151614332601f89168261423f565b8355505b6001600288020188555050505b505050505050565b600060808201905081810360008301526143658187613062565b905081810360208301526143798186613062565b9050614388604083018561325e565b818103606083015261439a8184613062565b905095945050505050565b7f4552433732313a207472616e736665722066726f6d20696e636f72726563742060008201527f6f776e6572000000000000000000000000000000000000000000000000000000602082015250565b6000614401602583613051565b915061440c826143a5565b604082019050919050565b60006020820190508181036000830152614430816143f4565b9050919050565b7f4552433732313a207472616e7366657220746f20746865207a65726f2061646460008201527f7265737300000000000000000000000000000000000000000000000000000000602082015250565b6000614493602483613051565b915061449e82614437565b604082019050919050565b600060208201905081810360008301526144c281614486565b9050919050565b7f4552433732313a20617070726f766520746f2063616c6c657200000000000000600082015250565b60006144ff601983613051565b915061450a826144c9565b602082019050919050565b6000602082019050818103600083015261452e816144f2565b9050919050565b7f4552433732313a207472616e7366657220746f206e6f6e20455243373231526560008201527f63656976657220696d706c656d656e7465720000000000000000000000000000602082015250565b6000614591603283613051565b915061459c82614535565b604082019050919050565b600060208201905081810360008301526145c081614584565b9050919050565b7f4e487b7100000000000000000000000000000000000000000000000000000000600052601260045260246000fd5b600061460182612f99565b915061460c83612f99565b92508282019050808211156146245761462361403b565b5b92915050565b600061463582612f99565b915061464083612f99565b9250826146505761464f6145c7565b5b828204905092915050565b600061466682612f99565b915061467183612f99565b925082820261467f81612f99565b915082820484148315176146965761469561403b565b5b5092915050565b600060808201905081810360008301526146b78187613062565b905081810360208301526146cb8186613062565b90506146da604083018561325e565b6146e7606083018461325e565b95945050505050565b6000604082019050818103600083015261470a8185613062565b9050614719602083018461325e565b9392505050565b6000606082019050818103600083015261473a8186613062565b9050614749602083018561325e565b614756604083018461325e565b949350505050565b600081519050919050565b600082825260208201905092915050565b60006147858261475e565b61478f8185614769565b935061479f818560208601612f25565b6147a881612f4f565b840191505092915050565b60006080820190506147c86000830187613148565b6147d56020830186613148565b6147e2604083018561325e565b81810360608301526147f4818461477a565b905095945050505050565b60008151905061480e81612e7a565b92915050565b60006020828403121561482a57614829612e44565b5b6000614838848285016147ff565b91505092915050565b7f4552433732313a206d696e7420746f20746865207a65726f2061646472657373600082015250565b6000614877602083613051565b915061488282614841565b602082019050919050565b600060208201905081810360008301526148a68161486a565b9050919050565b7f4552433732313a20746f6b656e20616c7265616479206d696e74656400000000600082015250565b60006148e3601c83613051565b91506148ee826148ad565b602082019050919050565b60006020820190508181036000830152614912816148d6565b905091905056fe506c617965722061747461636b656420626f73732e204e657720626f73732068703a2025734142434445464748494a4b4c4d4e4f505152535455565758595a6162636465666768696a6b6c6d6e6f707172737475767778797a303132333435363738392b2f426f73732061747461636b656420706c617965722e204e657720706c617965722068703a2025730a4d696e746564204e465420772f20746f6b656e496420257320616e6420636861726163746572496e6465782025730a506c6179657220772f206368617261637465722025732061626f757420746f2061747461636b2e2048617320257320485020616e64202573204144a2646970667358221220c5ee33c68faa8f678e9982acb29da42b9ad7808f8656ac207e8b4853c4c6dd3164736f6c63430008110033446f6e6520696e697469616c697a696e6720257320772f2048502025732c20696d67202573446f6e6520696e697469616c697a696e6720626f737320257320772f2048502025732c20696d67202573",
  "linkReferences": {},
  "deployedLinkReferences": {}
}